{
  "address": "0x757Fcf8C07bE69aed03B8Fa8a773150c4fC6843e",
  "abi": [
    {
      "inputs": [
        {
          "internalType": "address",
          "name": "_balloonAddr",
          "type": "address"
        },
        {
          "internalType": "address",
          "name": "_waterAddr",
          "type": "address"
        }
      ],
      "stateMutability": "nonpayable",
      "type": "constructor"
    },
    {
      "inputs": [
        {
          "internalType": "uint256",
          "name": "balloonInput",
          "type": "uint256"
        }
      ],
      "name": "balloonToWater",
      "outputs": [
        {
          "internalType": "uint256",
          "name": "waterOutput",
          "type": "uint256"
        }
      ],
      "stateMutability": "nonpayable",
      "type": "function"
    },
    {
      "inputs": [],
      "name": "balloonToken",
      "outputs": [
        {
          "internalType": "contract IERC20",
          "name": "",
          "type": "address"
        }
      ],
      "stateMutability": "view",
      "type": "function"
    },
    {
      "inputs": [
        {
          "internalType": "uint256",
          "name": "balloonAmount",
          "type": "uint256"
        },
        {
          "internalType": "uint256",
          "name": "waterAmount",
          "type": "uint256"
        }
      ],
      "name": "init",
      "outputs": [
        {
          "internalType": "uint256",
          "name": "",
          "type": "uint256"
        }
      ],
      "stateMutability": "nonpayable",
      "type": "function"
    },
    {
      "inputs": [
        {
          "internalType": "uint256",
          "name": "inputAmount",
          "type": "uint256"
        },
        {
          "internalType": "uint256",
          "name": "inputReserve",
          "type": "uint256"
        },
        {
          "internalType": "uint256",
          "name": "outputReserve",
          "type": "uint256"
        }
      ],
      "name": "price",
      "outputs": [
        {
          "internalType": "uint256",
          "name": "",
          "type": "uint256"
        }
      ],
      "stateMutability": "pure",
      "type": "function"
    },
    {
      "inputs": [],
      "name": "totalLiquidity",
      "outputs": [
        {
          "internalType": "uint256",
          "name": "",
          "type": "uint256"
        }
      ],
      "stateMutability": "view",
      "type": "function"
    },
    {
      "inputs": [
        {
          "internalType": "uint256",
          "name": "waterInput",
          "type": "uint256"
        }
      ],
      "name": "waterToBalloon",
      "outputs": [
        {
          "internalType": "uint256",
          "name": "balloonOutput",
          "type": "uint256"
        }
      ],
      "stateMutability": "nonpayable",
      "type": "function"
    },
    {
      "inputs": [],
      "name": "waterToken",
      "outputs": [
        {
          "internalType": "contract IERC20",
          "name": "",
          "type": "address"
        }
      ],
      "stateMutability": "view",
      "type": "function"
    }
  ],
  "transactionHash": "0x3d9b4c849e5429a9c7b61e0a35fb432e2dfcaf0cbf5d2e689316ea0b2e2378d8",
  "args": [
    "0xc546293186837efbA76d66A780adBdEBd91feF2c",
    "0xFEa320d7969D77055E609cf7a2479B46dFA78a2A"
  ],
  "numDeployments": 1,
  "solcInputHash": "87f5cb11662db20e6a6e4757d72c62f0",
  "bytecode": "0x6080604052348015600e575f5ffd5b50604051610967380380610967833981016040819052602b916074565b5f80546001600160a01b039384166001600160a01b0319918216179091556001805492909316911617905560a0565b80516001600160a01b0381168114606f575f5ffd5b919050565b5f5f604083850312156084575f5ffd5b608b83605a565b9150609760208401605a565b90509250929050565b6108ba806100ad5f395ff3fe608060405234801561000f575f5ffd5b506004361061007a575f3560e01c80634f454b69116100585780634f454b69146100d75780636ed059ff146100ea578063a5843f08146100fd578063eca4b38814610110575f5ffd5b806315770f921461007e5780632071a9f41461009a5780633ba85ce4146100ad575b5f5ffd5b61008760025481565b6040519081526020015b60405180910390f35b6100876100a836600461070c565b610123565b5f546100bf906001600160a01b031681565b6040516001600160a01b039091168152602001610091565b6100876100e5366004610735565b61016f565b6001546100bf906001600160a01b031681565b61008761010b36600461074c565b610387565b61008761011e366004610735565b610508565b5f80610131856103e5610780565b90505f61013e8483610780565b90505f8261014e876103e8610780565b6101589190610797565b905061016481836107aa565b979650505050505050565b6001546040516370a0823160e01b81523060048201525f9182916001600160a01b03909116906370a0823190602401602060405180830381865afa1580156101b9573d5f5f3e3d5ffd5b505050506040513d601f19601f820116820180604052508101906101dd91906107c9565b5f80546040516370a0823160e01b815230600482015292935090916001600160a01b03909116906370a0823190602401602060405180830381865afa158015610228573d5f5f3e3d5ffd5b505050506040513d601f19601f8201168201806040525081019061024c91906107c9565b9050610259848383610123565b6001546040516323b872dd60e01b81529194506001600160a01b0316906323b872dd9061028e903390309089906004016107e0565b6020604051808303815f875af11580156102aa573d5f5f3e3d5ffd5b505050506040513d601f19601f820116820180604052508101906102ce9190610804565b6102f35760405162461bcd60e51b81526004016102ea9061082a565b60405180910390fd5b5f5460405163a9059cbb60e01b8152336004820152602481018590526001600160a01b039091169063a9059cbb906044016020604051808303815f875af1158015610340573d5f5f3e3d5ffd5b505050506040513d601f19601f820116820180604052508101906103649190610804565b6103805760405162461bcd60e51b81526004016102ea90610857565b5050919050565b5f6002545f146103d95760405162461bcd60e51b815260206004820152601a60248201527f4445583a20616c726561647920686173206c697175696469747900000000000060448201526064016102ea565b60028390555f546040516323b872dd60e01b81526001600160a01b03909116906323b872dd90610411903390309088906004016107e0565b6020604051808303815f875af115801561042d573d5f5f3e3d5ffd5b505050506040513d601f19601f820116820180604052508101906104519190610804565b61046d5760405162461bcd60e51b81526004016102ea90610857565b6001546040516323b872dd60e01b81526001600160a01b03909116906323b872dd906104a1903390309087906004016107e0565b6020604051808303815f875af11580156104bd573d5f5f3e3d5ffd5b505050506040513d601f19601f820116820180604052508101906104e19190610804565b6104fd5760405162461bcd60e51b81526004016102ea9061082a565b506002545b92915050565b5f80546040516370a0823160e01b815230600482015282916001600160a01b0316906370a0823190602401602060405180830381865afa15801561054e573d5f5f3e3d5ffd5b505050506040513d601f19601f8201168201806040525081019061057291906107c9565b6001546040516370a0823160e01b81523060048201529192505f916001600160a01b03909116906370a0823190602401602060405180830381865afa1580156105bd573d5f5f3e3d5ffd5b505050506040513d601f19601f820116820180604052508101906105e191906107c9565b90506105ee848383610123565b5f546040516323b872dd60e01b81529194506001600160a01b0316906323b872dd90610622903390309089906004016107e0565b6020604051808303815f875af115801561063e573d5f5f3e3d5ffd5b505050506040513d601f19601f820116820180604052508101906106629190610804565b61067e5760405162461bcd60e51b81526004016102ea90610857565b60015460405163a9059cbb60e01b8152336004820152602481018590526001600160a01b039091169063a9059cbb906044016020604051808303815f875af11580156106cc573d5f5f3e3d5ffd5b505050506040513d601f19601f820116820180604052508101906106f09190610804565b6103805760405162461bcd60e51b81526004016102ea9061082a565b5f5f5f6060848603121561071e575f5ffd5b505081359360208301359350604090920135919050565b5f60208284031215610745575f5ffd5b5035919050565b5f5f6040838503121561075d575f5ffd5b50508035926020909101359150565b634e487b7160e01b5f52601160045260245ffd5b80820281158282048414176105025761050261076c565b808201808211156105025761050261076c565b5f826107c457634e487b7160e01b5f52601260045260245ffd5b500490565b5f602082840312156107d9575f5ffd5b5051919050565b6001600160a01b039384168152919092166020820152604081019190915260600190565b5f60208284031215610814575f5ffd5b81518015158114610823575f5ffd5b9392505050565b60208082526013908201527215d055081d1c985b9cd9995c8819985a5b1959606a1b604082015260600190565b602080825260139082015272109053081d1c985b9cd9995c8819985a5b1959606a1b60408201526060019056fea264697066735822122075015614ddac2d5eb494df637681d390dcb84ac4afd1aaaad6e97768a614aeae64736f6c634300081e0033",
  "devdoc": {
    "kind": "dev",
    "methods": {},
    "version": 1
  },
  "userdoc": {
    "kind": "user",
    "methods": {},
    "version": 1
  },
  "storageLayout": {
    "storage": [
      {
        "astId": 83,
        "contract": "contracts/DEX.sol:DEX",
        "label": "balloonToken",
        "offset": 0,
        "slot": "0",
        "type": "t_contract(IERC20)77"
      },
      {
        "astId": 86,
        "contract": "contracts/DEX.sol:DEX",
        "label": "waterToken",
        "offset": 0,
        "slot": "1",
        "type": "t_contract(IERC20)77"
      },
      {
        "astId": 88,
        "contract": "contracts/DEX.sol:DEX",
        "label": "totalLiquidity",
        "offset": 0,
        "slot": "2",
        "type": "t_uint256"
      }
    ],
    "types": {
      "t_contract(IERC20)77": {
        "encoding": "inplace",
        "label": "contract IERC20",
        "numberOfBytes": "20"
      },
      "t_uint256": {
        "encoding": "inplace",
        "label": "uint256",
        "numberOfBytes": "32"
      }
    }
  }
}