{
  "address": "0x89db6e9f23a34ACa38fF23Ff29c80b6466973B56",
  "abi": [
    {
      "inputs": [
        {
          "internalType": "address",
          "name": "initialOwner",
          "type": "address"
        }
      ],
      "stateMutability": "nonpayable",
      "type": "constructor"
    },
    {
      "inputs": [
        {
          "internalType": "address",
          "name": "sender",
          "type": "address"
        },
        {
          "internalType": "uint256",
          "name": "tokenId",
          "type": "uint256"
        },
        {
          "internalType": "address",
          "name": "owner",
          "type": "address"
        }
      ],
      "name": "ERC721IncorrectOwner",
      "type": "error"
    },
    {
      "inputs": [
        {
          "internalType": "address",
          "name": "operator",
          "type": "address"
        },
        {
          "internalType": "uint256",
          "name": "tokenId",
          "type": "uint256"
        }
      ],
      "name": "ERC721InsufficientApproval",
      "type": "error"
    },
    {
      "inputs": [
        {
          "internalType": "address",
          "name": "approver",
          "type": "address"
        }
      ],
      "name": "ERC721InvalidApprover",
      "type": "error"
    },
    {
      "inputs": [
        {
          "internalType": "address",
          "name": "operator",
          "type": "address"
        }
      ],
      "name": "ERC721InvalidOperator",
      "type": "error"
    },
    {
      "inputs": [
        {
          "internalType": "address",
          "name": "owner",
          "type": "address"
        }
      ],
      "name": "ERC721InvalidOwner",
      "type": "error"
    },
    {
      "inputs": [
        {
          "internalType": "address",
          "name": "receiver",
          "type": "address"
        }
      ],
      "name": "ERC721InvalidReceiver",
      "type": "error"
    },
    {
      "inputs": [
        {
          "internalType": "address",
          "name": "sender",
          "type": "address"
        }
      ],
      "name": "ERC721InvalidSender",
      "type": "error"
    },
    {
      "inputs": [
        {
          "internalType": "uint256",
          "name": "tokenId",
          "type": "uint256"
        }
      ],
      "name": "ERC721NonexistentToken",
      "type": "error"
    },
    {
      "inputs": [
        {
          "internalType": "address",
          "name": "owner",
          "type": "address"
        }
      ],
      "name": "OwnableInvalidOwner",
      "type": "error"
    },
    {
      "inputs": [
        {
          "internalType": "address",
          "name": "account",
          "type": "address"
        }
      ],
      "name": "OwnableUnauthorizedAccount",
      "type": "error"
    },
    {
      "anonymous": false,
      "inputs": [
        {
          "indexed": true,
          "internalType": "address",
          "name": "owner",
          "type": "address"
        },
        {
          "indexed": true,
          "internalType": "address",
          "name": "approved",
          "type": "address"
        },
        {
          "indexed": true,
          "internalType": "uint256",
          "name": "tokenId",
          "type": "uint256"
        }
      ],
      "name": "Approval",
      "type": "event"
    },
    {
      "anonymous": false,
      "inputs": [
        {
          "indexed": true,
          "internalType": "address",
          "name": "owner",
          "type": "address"
        },
        {
          "indexed": true,
          "internalType": "address",
          "name": "operator",
          "type": "address"
        },
        {
          "indexed": false,
          "internalType": "bool",
          "name": "approved",
          "type": "bool"
        }
      ],
      "name": "ApprovalForAll",
      "type": "event"
    },
    {
      "anonymous": false,
      "inputs": [
        {
          "indexed": true,
          "internalType": "address",
          "name": "previousOwner",
          "type": "address"
        },
        {
          "indexed": true,
          "internalType": "address",
          "name": "newOwner",
          "type": "address"
        }
      ],
      "name": "OwnershipTransferred",
      "type": "event"
    },
    {
      "anonymous": false,
      "inputs": [
        {
          "indexed": true,
          "internalType": "address",
          "name": "from",
          "type": "address"
        },
        {
          "indexed": true,
          "internalType": "address",
          "name": "to",
          "type": "address"
        },
        {
          "indexed": true,
          "internalType": "uint256",
          "name": "tokenId",
          "type": "uint256"
        }
      ],
      "name": "Transfer",
      "type": "event"
    },
    {
      "inputs": [],
      "name": "MINT_PRICE",
      "outputs": [
        {
          "internalType": "uint256",
          "name": "",
          "type": "uint256"
        }
      ],
      "stateMutability": "view",
      "type": "function"
    },
    {
      "inputs": [
        {
          "internalType": "address",
          "name": "to",
          "type": "address"
        },
        {
          "internalType": "uint256",
          "name": "tokenId",
          "type": "uint256"
        }
      ],
      "name": "approve",
      "outputs": [],
      "stateMutability": "nonpayable",
      "type": "function"
    },
    {
      "inputs": [
        {
          "internalType": "address",
          "name": "owner",
          "type": "address"
        }
      ],
      "name": "balanceOf",
      "outputs": [
        {
          "internalType": "uint256",
          "name": "",
          "type": "uint256"
        }
      ],
      "stateMutability": "view",
      "type": "function"
    },
    {
      "inputs": [
        {
          "internalType": "uint256",
          "name": "tokenId",
          "type": "uint256"
        }
      ],
      "name": "getApproved",
      "outputs": [
        {
          "internalType": "address",
          "name": "",
          "type": "address"
        }
      ],
      "stateMutability": "view",
      "type": "function"
    },
    {
      "inputs": [
        {
          "internalType": "address",
          "name": "owner",
          "type": "address"
        },
        {
          "internalType": "address",
          "name": "operator",
          "type": "address"
        }
      ],
      "name": "isApprovedForAll",
      "outputs": [
        {
          "internalType": "bool",
          "name": "",
          "type": "bool"
        }
      ],
      "stateMutability": "view",
      "type": "function"
    },
    {
      "inputs": [],
      "name": "mint",
      "outputs": [],
      "stateMutability": "payable",
      "type": "function"
    },
    {
      "inputs": [],
      "name": "name",
      "outputs": [
        {
          "internalType": "string",
          "name": "",
          "type": "string"
        }
      ],
      "stateMutability": "view",
      "type": "function"
    },
    {
      "inputs": [],
      "name": "nextTokenId",
      "outputs": [
        {
          "internalType": "uint256",
          "name": "",
          "type": "uint256"
        }
      ],
      "stateMutability": "view",
      "type": "function"
    },
    {
      "inputs": [],
      "name": "owner",
      "outputs": [
        {
          "internalType": "address",
          "name": "",
          "type": "address"
        }
      ],
      "stateMutability": "view",
      "type": "function"
    },
    {
      "inputs": [
        {
          "internalType": "uint256",
          "name": "tokenId",
          "type": "uint256"
        }
      ],
      "name": "ownerOf",
      "outputs": [
        {
          "internalType": "address",
          "name": "",
          "type": "address"
        }
      ],
      "stateMutability": "view",
      "type": "function"
    },
    {
      "inputs": [],
      "name": "renounceOwnership",
      "outputs": [],
      "stateMutability": "nonpayable",
      "type": "function"
    },
    {
      "inputs": [
        {
          "internalType": "address",
          "name": "from",
          "type": "address"
        },
        {
          "internalType": "address",
          "name": "to",
          "type": "address"
        },
        {
          "internalType": "uint256",
          "name": "tokenId",
          "type": "uint256"
        }
      ],
      "name": "safeTransferFrom",
      "outputs": [],
      "stateMutability": "nonpayable",
      "type": "function"
    },
    {
      "inputs": [
        {
          "internalType": "address",
          "name": "from",
          "type": "address"
        },
        {
          "internalType": "address",
          "name": "to",
          "type": "address"
        },
        {
          "internalType": "uint256",
          "name": "tokenId",
          "type": "uint256"
        },
        {
          "internalType": "bytes",
          "name": "data",
          "type": "bytes"
        }
      ],
      "name": "safeTransferFrom",
      "outputs": [],
      "stateMutability": "nonpayable",
      "type": "function"
    },
    {
      "inputs": [
        {
          "internalType": "address",
          "name": "operator",
          "type": "address"
        },
        {
          "internalType": "bool",
          "name": "approved",
          "type": "bool"
        }
      ],
      "name": "setApprovalForAll",
      "outputs": [],
      "stateMutability": "nonpayable",
      "type": "function"
    },
    {
      "inputs": [
        {
          "internalType": "bytes4",
          "name": "interfaceId",
          "type": "bytes4"
        }
      ],
      "name": "supportsInterface",
      "outputs": [
        {
          "internalType": "bool",
          "name": "",
          "type": "bool"
        }
      ],
      "stateMutability": "view",
      "type": "function"
    },
    {
      "inputs": [],
      "name": "symbol",
      "outputs": [
        {
          "internalType": "string",
          "name": "",
          "type": "string"
        }
      ],
      "stateMutability": "view",
      "type": "function"
    },
    {
      "inputs": [
        {
          "internalType": "uint256",
          "name": "",
          "type": "uint256"
        }
      ],
      "name": "tokenURI",
      "outputs": [
        {
          "internalType": "string",
          "name": "",
          "type": "string"
        }
      ],
      "stateMutability": "view",
      "type": "function"
    },
    {
      "inputs": [
        {
          "internalType": "address",
          "name": "from",
          "type": "address"
        },
        {
          "internalType": "address",
          "name": "to",
          "type": "address"
        },
        {
          "internalType": "uint256",
          "name": "tokenId",
          "type": "uint256"
        }
      ],
      "name": "transferFrom",
      "outputs": [],
      "stateMutability": "nonpayable",
      "type": "function"
    },
    {
      "inputs": [
        {
          "internalType": "address",
          "name": "newOwner",
          "type": "address"
        }
      ],
      "name": "transferOwnership",
      "outputs": [],
      "stateMutability": "nonpayable",
      "type": "function"
    },
    {
      "inputs": [],
      "name": "withdraw",
      "outputs": [],
      "stateMutability": "nonpayable",
      "type": "function"
    }
  ],
  "transactionHash": "0x64f1e75898a1afad1931c5528c82f61a9d05b0d1b2d60950efc57a3df507dff8",
  "args": [
    "0xED677B50c05a42f3Ba0837b26531649E11794794"
  ],
  "numDeployments": 1,
  "solcInputHash": "3a20e9b294939eb852b2bc84ac020db5",
  "bytecode": "0x608060405234801561000f575f5ffd5b506040516113d53803806113d583398101604081905261002e9161011b565b806040518060400160405280600b81526020016a15d9588cd09bdcdcd0d85d60aa1b8152506040518060400160405280600381526020016257424360e81b815250815f908161007d91906101e0565b50600161008a82826101e0565b5050506001600160a01b0381166100ba57604051631e4fbdf760e01b81525f600482015260240160405180910390fd5b6100c3816100ca565b505061029a565b600680546001600160a01b038381166001600160a01b0319831681179093556040519116919082907f8be0079c531659141344cd1fd0a4f28419497f9722a3daafe3b4186f6b6457e0905f90a35050565b5f6020828403121561012b575f5ffd5b81516001600160a01b0381168114610141575f5ffd5b9392505050565b634e487b7160e01b5f52604160045260245ffd5b600181811c9082168061017057607f821691505b60208210810361018e57634e487b7160e01b5f52602260045260245ffd5b50919050565b601f8211156101db57805f5260205f20601f840160051c810160208510156101b95750805b601f840160051c820191505b818110156101d8575f81556001016101c5565b50505b505050565b81516001600160401b038111156101f9576101f9610148565b61020d81610207845461015c565b84610194565b6020601f82116001811461023f575f83156102285750848201515b5f19600385901b1c1916600184901b1784556101d8565b5f84815260208120601f198516915b8281101561026e578785015182556020948501946001909201910161024e565b508482101561028b57868401515f19600387901b60f8161c191681555b50505050600190811b01905550565b61112e806102a75f395ff3fe60806040526004361061011b575f3560e01c8063715018a61161009d578063b88d4fde11610062578063b88d4fde146102eb578063c002d23d1461030a578063c87b56dd14610324578063e985e9c514610343578063f2fde38b14610362575f5ffd5b8063715018a61461027257806375794a3c146102865780638da5cb5b1461029b57806395d89b41146102b8578063a22cb465146102cc575f5ffd5b806323b872dd116100e357806323b872dd146101d45780633ccfd60b146101f357806342842e0e146102075780636352211e1461022657806370a0823114610245575f5ffd5b806301ffc9a71461011f57806306fdde0314610153578063081812fc14610174578063095ea7b3146101ab5780631249c58b146101cc575b5f5ffd5b34801561012a575f5ffd5b5061013e610139366004610d8b565b610381565b60405190151581526020015b60405180910390f35b34801561015e575f5ffd5b506101676103d2565b60405161014a9190610ddb565b34801561017f575f5ffd5b5061019361018e366004610ded565b610461565b6040516001600160a01b03909116815260200161014a565b3480156101b6575f5ffd5b506101ca6101c5366004610e1f565b610488565b005b6101ca610497565b3480156101df575f5ffd5b506101ca6101ee366004610e47565b610507565b3480156101fe575f5ffd5b506101ca610590565b348015610212575f5ffd5b506101ca610221366004610e47565b61063a565b348015610231575f5ffd5b50610193610240366004610ded565b610659565b348015610250575f5ffd5b5061026461025f366004610e81565b610663565b60405190815260200161014a565b34801561027d575f5ffd5b506101ca6106a8565b348015610291575f5ffd5b5061026460075481565b3480156102a6575f5ffd5b506006546001600160a01b0316610193565b3480156102c3575f5ffd5b506101676106bb565b3480156102d7575f5ffd5b506101ca6102e6366004610e9a565b6106ca565b3480156102f6575f5ffd5b506101ca610305366004610ee7565b6106d5565b348015610315575f5ffd5b50610264662386f26fc1000081565b34801561032f575f5ffd5b5061016761033e366004610ded565b6106ed565b34801561034e575f5ffd5b5061013e61035d366004610fc4565b61070e565b34801561036d575f5ffd5b506101ca61037c366004610e81565b61073b565b5f6001600160e01b031982166380ac58cd60e01b14806103b157506001600160e01b03198216635b5e139f60e01b145b806103cc57506301ffc9a760e01b6001600160e01b03198316145b92915050565b60605f80546103e090610ff5565b80601f016020809104026020016040519081016040528092919081815260200182805461040c90610ff5565b80156104575780601f1061042e57610100808354040283529160200191610457565b820191905f5260205f20905b81548152906001019060200180831161043a57829003601f168201915b5050505050905090565b5f61046b82610775565b505f828152600460205260409020546001600160a01b03166103cc565b6104938282336107ad565b5050565b662386f26fc100003410156104e45760405162461bcd60e51b815260206004820152600e60248201526d09cdee840cadcdeeaced0408aa8960931b60448201526064015b60405180910390fd5b600780549081905f6104f58361102d565b919050555061050433826107ba565b50565b6001600160a01b03821661053057604051633250574960e11b81525f60048201526024016104db565b5f61053c8383336107d3565b9050836001600160a01b0316816001600160a01b03161461058a576040516364283d7b60e01b81526001600160a01b03808616600483015260248201849052821660448201526064016104db565b50505050565b6105986108c5565b5f6105ab6006546001600160a01b031690565b6001600160a01b0316476040515f6040518083038185875af1925050503d805f81146105f2576040519150601f19603f3d011682016040523d82523d5f602084013e6105f7565b606091505b50509050806105045760405162461bcd60e51b815260206004820152600f60248201526e151c985b9cd9995c8819985a5b1959608a1b60448201526064016104db565b61065483838360405180602001604052805f8152506106d5565b505050565b5f6103cc82610775565b5f6001600160a01b03821661068d576040516322718ad960e21b81525f60048201526024016104db565b506001600160a01b03165f9081526003602052604090205490565b6106b06108c5565b6106b95f6108f2565b565b6060600180546103e090610ff5565b610493338383610943565b6106e0848484610507565b61058a3385858585610a0a565b60606040518060800160405280605081526020016110a96050913992915050565b6001600160a01b039182165f90815260056020908152604080832093909416825291909152205460ff1690565b6107436108c5565b6001600160a01b03811661076c57604051631e4fbdf760e01b81525f60048201526024016104db565b610504816108f2565b5f818152600260205260408120546001600160a01b0316806103cc57604051637e27328960e01b8152600481018490526024016104db565b6106548383836001610b32565b610493828260405180602001604052805f815250610c36565b5f828152600260205260408120546001600160a01b03908116908316156107ff576107ff818486610c4d565b6001600160a01b038116156108395761081a5f855f5f610b32565b6001600160a01b0381165f90815260036020526040902080545f190190555b6001600160a01b03851615610867576001600160a01b0385165f908152600360205260409020805460010190555b5f8481526002602052604080822080546001600160a01b0319166001600160a01b0389811691821790925591518793918516917fddf252ad1be2c89b69c2b068fc378daa952ba7f163c4a11628f55a4df523b3ef91a4949350505050565b6006546001600160a01b031633146106b95760405163118cdaa760e01b81523360048201526024016104db565b600680546001600160a01b038381166001600160a01b0319831681179093556040519116919082907f8be0079c531659141344cd1fd0a4f28419497f9722a3daafe3b4186f6b6457e0905f90a35050565b6001600160a01b03831661096c5760405163a9fbf51f60e01b81525f60048201526024016104db565b6001600160a01b03821661099e57604051630b61174360e31b81526001600160a01b03831660048201526024016104db565b6001600160a01b038381165f81815260056020908152604080832094871680845294825291829020805460ff191686151590811790915591519182527f17307eab39ab6107e8899845ad3d59bd9653f200f220920489ca2b5937696c31910160405180910390a3505050565b6001600160a01b0383163b15610b2b57604051630a85bd0160e11b81526001600160a01b0384169063150b7a0290610a4c908890889087908790600401611051565b6020604051808303815f875af1925050508015610a86575060408051601f3d908101601f19168201909252610a839181019061108d565b60015b610aed573d808015610ab3576040519150601f19603f3d011682016040523d82523d5f602084013e610ab8565b606091505b5080515f03610ae557604051633250574960e11b81526001600160a01b03851660048201526024016104db565b805160208201fd5b6001600160e01b03198116630a85bd0160e11b14610b2957604051633250574960e11b81526001600160a01b03851660048201526024016104db565b505b5050505050565b8080610b4657506001600160a01b03821615155b15610c07575f610b5584610775565b90506001600160a01b03831615801590610b815750826001600160a01b0316816001600160a01b031614155b8015610b945750610b92818461070e565b155b15610bbd5760405163a9fbf51f60e01b81526001600160a01b03841660048201526024016104db565b8115610c055783856001600160a01b0316826001600160a01b03167f8c5be1e5ebec7d5bd14f71427d1e84f3dd0314c0f7b2291e5b200ac8c7c3b92560405160405180910390a45b505b50505f90815260046020526040902080546001600160a01b0319166001600160a01b0392909216919091179055565b610c408383610cb1565b610654335f858585610a0a565b610c58838383610d12565b610654576001600160a01b038316610c8657604051637e27328960e01b8152600481018290526024016104db565b60405163177e802f60e01b81526001600160a01b0383166004820152602481018290526044016104db565b6001600160a01b038216610cda57604051633250574960e11b81525f60048201526024016104db565b5f610ce683835f6107d3565b90506001600160a01b03811615610654576040516339e3563760e11b81525f60048201526024016104db565b5f6001600160a01b03831615801590610d6e5750826001600160a01b0316846001600160a01b03161480610d4b5750610d4b848461070e565b80610d6e57505f828152600460205260409020546001600160a01b038481169116145b949350505050565b6001600160e01b031981168114610504575f5ffd5b5f60208284031215610d9b575f5ffd5b8135610da681610d76565b9392505050565b5f81518084528060208401602086015e5f602082860101526020601f19601f83011685010191505092915050565b602081525f610da66020830184610dad565b5f60208284031215610dfd575f5ffd5b5035919050565b80356001600160a01b0381168114610e1a575f5ffd5b919050565b5f5f60408385031215610e30575f5ffd5b610e3983610e04565b946020939093013593505050565b5f5f5f60608486031215610e59575f5ffd5b610e6284610e04565b9250610e7060208501610e04565b929592945050506040919091013590565b5f60208284031215610e91575f5ffd5b610da682610e04565b5f5f60408385031215610eab575f5ffd5b610eb483610e04565b915060208301358015158114610ec8575f5ffd5b809150509250929050565b634e487b7160e01b5f52604160045260245ffd5b5f5f5f5f60808587031215610efa575f5ffd5b610f0385610e04565b9350610f1160208601610e04565b925060408501359150606085013567ffffffffffffffff811115610f33575f5ffd5b8501601f81018713610f43575f5ffd5b803567ffffffffffffffff811115610f5d57610f5d610ed3565b604051601f8201601f19908116603f0116810167ffffffffffffffff81118282101715610f8c57610f8c610ed3565b604052818152828201602001891015610fa3575f5ffd5b816020840160208301375f6020838301015280935050505092959194509250565b5f5f60408385031215610fd5575f5ffd5b610fde83610e04565b9150610fec60208401610e04565b90509250929050565b600181811c9082168061100957607f821691505b60208210810361102757634e487b7160e01b5f52602260045260245ffd5b50919050565b5f6001820161104a57634e487b7160e01b5f52601160045260245ffd5b5060010190565b6001600160a01b03858116825284166020820152604081018390526080606082018190525f9061108390830184610dad565b9695505050505050565b5f6020828403121561109d575f5ffd5b8151610da681610d7656fe68747470733a2f2f697066732e696f2f697066732f6261666b726569633666626b6c6e363364686e376a64336b6f6772706d636e74766a3576733571687272787870353633727762756f6d356b757771a264697066735822122067728fa4b9ef5714541e5e59bb017c2cd36cb78f4a5175f63f6beae608d5134364736f6c634300081e0033",
  "devdoc": {
    "errors": {
      "ERC721IncorrectOwner(address,uint256,address)": [
        {
          "details": "Indicates an error related to the ownership over a particular token. Used in transfers.",
          "params": {
            "owner": "Address of the current owner of a token.",
            "sender": "Address whose tokens are being transferred.",
            "tokenId": "Identifier number of a token."
          }
        }
      ],
      "ERC721InsufficientApproval(address,uint256)": [
        {
          "details": "Indicates a failure with the `operator`’s approval. Used in transfers.",
          "params": {
            "operator": "Address that may be allowed to operate on tokens without being their owner.",
            "tokenId": "Identifier number of a token."
          }
        }
      ],
      "ERC721InvalidApprover(address)": [
        {
          "details": "Indicates a failure with the `approver` of a token to be approved. Used in approvals.",
          "params": {
            "approver": "Address initiating an approval operation."
          }
        }
      ],
      "ERC721InvalidOperator(address)": [
        {
          "details": "Indicates a failure with the `operator` to be approved. Used in approvals.",
          "params": {
            "operator": "Address that may be allowed to operate on tokens without being their owner."
          }
        }
      ],
      "ERC721InvalidOwner(address)": [
        {
          "details": "Indicates that an address can't be an owner. For example, `address(0)` is a forbidden owner in ERC-721. Used in balance queries.",
          "params": {
            "owner": "Address of the current owner of a token."
          }
        }
      ],
      "ERC721InvalidReceiver(address)": [
        {
          "details": "Indicates a failure with the token `receiver`. Used in transfers.",
          "params": {
            "receiver": "Address to which tokens are being transferred."
          }
        }
      ],
      "ERC721InvalidSender(address)": [
        {
          "details": "Indicates a failure with the token `sender`. Used in transfers.",
          "params": {
            "sender": "Address whose tokens are being transferred."
          }
        }
      ],
      "ERC721NonexistentToken(uint256)": [
        {
          "details": "Indicates a `tokenId` whose `owner` is the zero address.",
          "params": {
            "tokenId": "Identifier number of a token."
          }
        }
      ],
      "OwnableInvalidOwner(address)": [
        {
          "details": "The owner is not a valid owner account. (eg. `address(0)`)"
        }
      ],
      "OwnableUnauthorizedAccount(address)": [
        {
          "details": "The caller account is not authorized to perform an operation."
        }
      ]
    },
    "events": {
      "Approval(address,address,uint256)": {
        "details": "Emitted when `owner` enables `approved` to manage the `tokenId` token."
      },
      "ApprovalForAll(address,address,bool)": {
        "details": "Emitted when `owner` enables or disables (`approved`) `operator` to manage all of its assets."
      },
      "Transfer(address,address,uint256)": {
        "details": "Emitted when `tokenId` token is transferred from `from` to `to`."
      }
    },
    "kind": "dev",
    "methods": {
      "approve(address,uint256)": {
        "details": "Gives permission to `to` to transfer `tokenId` token to another account. The approval is cleared when the token is transferred. Only a single account can be approved at a time, so approving the zero address clears previous approvals. Requirements: - The caller must own the token or be an approved operator. - `tokenId` must exist. Emits an {Approval} event."
      },
      "balanceOf(address)": {
        "details": "Returns the number of tokens in ``owner``'s account."
      },
      "getApproved(uint256)": {
        "details": "Returns the account approved for `tokenId` token. Requirements: - `tokenId` must exist."
      },
      "isApprovedForAll(address,address)": {
        "details": "Returns if the `operator` is allowed to manage all of the assets of `owner`. See {setApprovalForAll}"
      },
      "name()": {
        "details": "Returns the token collection name."
      },
      "owner()": {
        "details": "Returns the address of the current owner."
      },
      "ownerOf(uint256)": {
        "details": "Returns the owner of the `tokenId` token. Requirements: - `tokenId` must exist."
      },
      "renounceOwnership()": {
        "details": "Leaves the contract without owner. It will not be possible to call `onlyOwner` functions. Can only be called by the current owner. NOTE: Renouncing ownership will leave the contract without an owner, thereby disabling any functionality that is only available to the owner."
      },
      "safeTransferFrom(address,address,uint256)": {
        "details": "Safely transfers `tokenId` token from `from` to `to`, checking first that contract recipients are aware of the ERC-721 protocol to prevent tokens from being forever locked. Requirements: - `from` cannot be the zero address. - `to` cannot be the zero address. - `tokenId` token must exist and be owned by `from`. - If the caller is not `from`, it must have been allowed to move this token by either {approve} or   {setApprovalForAll}. - If `to` refers to a smart contract, it must implement {IERC721Receiver-onERC721Received}, which is called upon   a safe transfer. Emits a {Transfer} event."
      },
      "safeTransferFrom(address,address,uint256,bytes)": {
        "details": "Safely transfers `tokenId` token from `from` to `to`. Requirements: - `from` cannot be the zero address. - `to` cannot be the zero address. - `tokenId` token must exist and be owned by `from`. - If the caller is not `from`, it must be approved to move this token by either {approve} or {setApprovalForAll}. - If `to` refers to a smart contract, it must implement {IERC721Receiver-onERC721Received}, which is called upon   a safe transfer. Emits a {Transfer} event."
      },
      "setApprovalForAll(address,bool)": {
        "details": "Approve or remove `operator` as an operator for the caller. Operators can call {transferFrom} or {safeTransferFrom} for any token owned by the caller. Requirements: - The `operator` cannot be the address zero. Emits an {ApprovalForAll} event."
      },
      "supportsInterface(bytes4)": {
        "details": "Returns true if this contract implements the interface defined by `interfaceId`. See the corresponding https://eips.ethereum.org/EIPS/eip-165#how-interfaces-are-identified[ERC section] to learn more about how these ids are created. This function call must use less than 30 000 gas."
      },
      "symbol()": {
        "details": "Returns the token collection symbol."
      },
      "transferFrom(address,address,uint256)": {
        "details": "Transfers `tokenId` token from `from` to `to`. WARNING: Note that the caller is responsible to confirm that the recipient is capable of receiving ERC-721 or else they may be permanently lost. Usage of {safeTransferFrom} prevents loss, though the caller must understand this adds an external call which potentially creates a reentrancy vulnerability. Requirements: - `from` cannot be the zero address. - `to` cannot be the zero address. - `tokenId` token must be owned by `from`. - If the caller is not `from`, it must be approved to move this token by either {approve} or {setApprovalForAll}. Emits a {Transfer} event."
      },
      "transferOwnership(address)": {
        "details": "Transfers ownership of the contract to a new account (`newOwner`). Can only be called by the current owner."
      }
    },
    "version": 1
  },
  "userdoc": {
    "kind": "user",
    "methods": {},
    "version": 1
  },
  "storageLayout": {
    "storage": [
      {
        "astId": 317,
        "contract": "contracts/MyNFT.sol:MyNFT",
        "label": "_name",
        "offset": 0,
        "slot": "0",
        "type": "t_string_storage"
      },
      {
        "astId": 319,
        "contract": "contracts/MyNFT.sol:MyNFT",
        "label": "_symbol",
        "offset": 0,
        "slot": "1",
        "type": "t_string_storage"
      },
      {
        "astId": 323,
        "contract": "contracts/MyNFT.sol:MyNFT",
        "label": "_owners",
        "offset": 0,
        "slot": "2",
        "type": "t_mapping(t_uint256,t_address)"
      },
      {
        "astId": 327,
        "contract": "contracts/MyNFT.sol:MyNFT",
        "label": "_balances",
        "offset": 0,
        "slot": "3",
        "type": "t_mapping(t_address,t_uint256)"
      },
      {
        "astId": 331,
        "contract": "contracts/MyNFT.sol:MyNFT",
        "label": "_tokenApprovals",
        "offset": 0,
        "slot": "4",
        "type": "t_mapping(t_uint256,t_address)"
      },
      {
        "astId": 337,
        "contract": "contracts/MyNFT.sol:MyNFT",
        "label": "_operatorApprovals",
        "offset": 0,
        "slot": "5",
        "type": "t_mapping(t_address,t_mapping(t_address,t_bool))"
      },
      {
        "astId": 8,
        "contract": "contracts/MyNFT.sol:MyNFT",
        "label": "_owner",
        "offset": 0,
        "slot": "6",
        "type": "t_address"
      },
      {
        "astId": 7501,
        "contract": "contracts/MyNFT.sol:MyNFT",
        "label": "nextTokenId",
        "offset": 0,
        "slot": "7",
        "type": "t_uint256"
      }
    ],
    "types": {
      "t_address": {
        "encoding": "inplace",
        "label": "address",
        "numberOfBytes": "20"
      },
      "t_bool": {
        "encoding": "inplace",
        "label": "bool",
        "numberOfBytes": "1"
      },
      "t_mapping(t_address,t_bool)": {
        "encoding": "mapping",
        "key": "t_address",
        "label": "mapping(address => bool)",
        "numberOfBytes": "32",
        "value": "t_bool"
      },
      "t_mapping(t_address,t_mapping(t_address,t_bool))": {
        "encoding": "mapping",
        "key": "t_address",
        "label": "mapping(address => mapping(address => bool))",
        "numberOfBytes": "32",
        "value": "t_mapping(t_address,t_bool)"
      },
      "t_mapping(t_address,t_uint256)": {
        "encoding": "mapping",
        "key": "t_address",
        "label": "mapping(address => uint256)",
        "numberOfBytes": "32",
        "value": "t_uint256"
      },
      "t_mapping(t_uint256,t_address)": {
        "encoding": "mapping",
        "key": "t_uint256",
        "label": "mapping(uint256 => address)",
        "numberOfBytes": "32",
        "value": "t_address"
      },
      "t_string_storage": {
        "encoding": "bytes",
        "label": "string",
        "numberOfBytes": "32"
      },
      "t_uint256": {
        "encoding": "inplace",
        "label": "uint256",
        "numberOfBytes": "32"
      }
    }
  }
}