{
  "address": "0xF805235F6d56E4B73f213A738fc498EF0E1E0458",
  "abi": [
    {
      "inputs": [],
      "stateMutability": "nonpayable",
      "type": "constructor"
    },
    {
      "anonymous": false,
      "inputs": [
        {
          "indexed": true,
          "internalType": "address",
          "name": "greetingSetter",
          "type": "address"
        },
        {
          "indexed": false,
          "internalType": "string",
          "name": "newGreeting",
          "type": "string"
        },
        {
          "indexed": false,
          "internalType": "bool",
          "name": "premium",
          "type": "bool"
        },
        {
          "indexed": false,
          "internalType": "uint256",
          "name": "value",
          "type": "uint256"
        }
      ],
      "name": "GreetingChange",
      "type": "event"
    },
    {
      "anonymous": false,
      "inputs": [
        {
          "indexed": true,
          "internalType": "address",
          "name": "previousOwner",
          "type": "address"
        },
        {
          "indexed": true,
          "internalType": "address",
          "name": "newOwner",
          "type": "address"
        }
      ],
      "name": "OwnershipTransferred",
      "type": "event"
    },
    {
      "inputs": [],
      "name": "greeting",
      "outputs": [
        {
          "internalType": "string",
          "name": "",
          "type": "string"
        }
      ],
      "stateMutability": "view",
      "type": "function"
    },
    {
      "inputs": [],
      "name": "owner",
      "outputs": [
        {
          "internalType": "address",
          "name": "",
          "type": "address"
        }
      ],
      "stateMutability": "view",
      "type": "function"
    },
    {
      "inputs": [],
      "name": "premium",
      "outputs": [
        {
          "internalType": "bool",
          "name": "",
          "type": "bool"
        }
      ],
      "stateMutability": "view",
      "type": "function"
    },
    {
      "inputs": [
        {
          "internalType": "string",
          "name": "_newGreeting",
          "type": "string"
        }
      ],
      "name": "setGreeting",
      "outputs": [],
      "stateMutability": "payable",
      "type": "function"
    },
    {
      "inputs": [],
      "name": "totalCounter",
      "outputs": [
        {
          "internalType": "uint256",
          "name": "",
          "type": "uint256"
        }
      ],
      "stateMutability": "view",
      "type": "function"
    },
    {
      "inputs": [
        {
          "internalType": "address",
          "name": "newOwner",
          "type": "address"
        }
      ],
      "name": "transferOwnership",
      "outputs": [],
      "stateMutability": "nonpayable",
      "type": "function"
    },
    {
      "inputs": [
        {
          "internalType": "address",
          "name": "",
          "type": "address"
        }
      ],
      "name": "userGreetingCounter",
      "outputs": [
        {
          "internalType": "uint256",
          "name": "",
          "type": "uint256"
        }
      ],
      "stateMutability": "view",
      "type": "function"
    },
    {
      "inputs": [],
      "name": "withdraw",
      "outputs": [],
      "stateMutability": "nonpayable",
      "type": "function"
    },
    {
      "stateMutability": "payable",
      "type": "receive"
    }
  ],
  "transactionHash": "0x3c189070403114d83be428e08db092ad1182e7b40598b8d2454dde475555e60d",
  "args": [],
  "numDeployments": 1,
  "solcInputHash": "89785457a7fa98a4d558b61be905caaf",
  "bytecode": "0x60c0604052601c60809081527f4275696c64696e6720556e73746f707061626c6520417070732121210000000060a05260019061003c9082610105565b506002805460ff191690555f600355348015610056575f5ffd5b505f80546001600160a01b031916331790556101bf565b634e487b7160e01b5f52604160045260245ffd5b600181811c9082168061009557607f821691505b6020821081036100b357634e487b7160e01b5f52602260045260245ffd5b50919050565b601f82111561010057805f5260205f20601f840160051c810160208510156100de5750805b601f840160051c820191505b818110156100fd575f81556001016100ea565b50505b505050565b81516001600160401b0381111561011e5761011e61006d565b6101328161012c8454610081565b846100b9565b6020601f821160018114610164575f831561014d5750848201515b5f19600385901b1c1916600184901b1784556100fd565b5f84815260208120601f198516915b828110156101935787850151825560209485019460019092019101610173565b50848210156101b057868401515f19600387901b60f8161c191681555b50505050600190811b01905550565b610b1e806101cc5f395ff3fe60806040526004361061007c575f3560e01c8063cea49c3c1161004c578063cea49c3c1461010e578063e0a73a9314610139578063ef690cc014610162578063f2fde38b14610183575f5ffd5b80633ccfd60b146100875780638da5cb5b1461009d57806397feba9d146100d8578063a4136862146100fb575f5ffd5b3661008357005b5f5ffd5b348015610092575f5ffd5b5061009b6101a2565b005b3480156100a8575f5ffd5b505f546100bb906001600160a01b031681565b6040516001600160a01b0390911681526020015b60405180910390f35b3480156100e3575f5ffd5b506100ed60035481565b6040519081526020016100cf565b61009b6101093660046107a5565b6102d2565b348015610119575f5ffd5b506100ed610128366004610858565b60046020525f908152604090205481565b348015610144575f5ffd5b506002546101529060ff1681565b60405190151581526020016100cf565b34801561016d575f5ffd5b506101766105ac565b6040516100cf91906108b3565b34801561018e575f5ffd5b5061009b61019d366004610858565b610638565b5f546001600160a01b031633146101f05760405162461bcd60e51b815260206004820152600d60248201526c2737ba103a34329027bbb732b960991b60448201526064015b60405180910390fd5b47806102375760405162461bcd60e51b81526020600482015260166024820152754e6f2062616c616e636520746f20776974686472617760501b60448201526064016101e7565b5f80546040516001600160a01b039091169083908381818185875af1925050503d805f8114610281576040519150601f19603f3d011682016040523d82523d5f602084013e610286565b606091505b50509050806102ce5760405162461bcd60e51b81526020600482015260146024820152732330b4b632b2103a379039b2b7321022ba3432b960611b60448201526064016101e7565b5050565b662386f26fc100003410156103295760405162461bcd60e51b815260206004820152601960248201527f4d696e696d756d20302e3031204554482072657175697265640000000000000060448201526064016101e7565b60016103358282610949565b50600160035f8282546103489190610a18565b909155505060035461035c90600a90610a45565b5f036104d157475f6064610371836005610a58565b61037b9190610a6f565b5f805460405192935090916001600160a01b039091169083908381818185875af1925050503d805f81146103ca576040519150601f19603f3d011682016040523d82523d5f602084013e6103cf565b606091505b50509050806104165760405162461bcd60e51b8152602060048201526013602482015272119959481d1c985b9cd9995c8819985a5b1959606a1b60448201526064016101e7565b60405147905f90339083908381818185875af1925050503d805f8114610457576040519150601f19603f3d011682016040523d82523d5f602084013e61045c565b606091505b50509050806104a55760405162461bcd60e51b8152602060048201526015602482015274141c9a5e99481d1c985b9cd9995c8819985a5b1959605a1b60448201526064016101e7565b6104c7604051806060016040528060218152602001610ac86021913985610726565b505050505061056a565b5f6104dd600a34610a6f565b6040519091505f90339083908381818185875af1925050503d805f811461051f576040519150601f19603f3d011682016040523d82523d5f602084013e610524565b606091505b50509050806105675760405162461bcd60e51b815260206004820152600f60248201526e10d85cda189858dac819985a5b1959608a1b60448201526064016101e7565b50505b60405133907f94cbd7e04dca26a7667654f6448b2ca0a40fec602118dc5fd8c82b9cf3c645ad906105a19084903480151591610a82565b60405180910390a250565b600180546105b9906108c5565b80601f01602080910402602001604051908101604052809291908181526020018280546105e5906108c5565b80156106305780601f1061060757610100808354040283529160200191610630565b820191905f5260205f20905b81548152906001019060200180831161061357829003601f168201915b505050505081565b5f546001600160a01b031633146106815760405162461bcd60e51b815260206004820152600d60248201526c2737ba103a34329027bbb732b960991b60448201526064016101e7565b6001600160a01b0381166106d75760405162461bcd60e51b815260206004820152601d60248201527f4e6577206f776e657220697320746865207a65726f206164647265737300000060448201526064016101e7565b5f80546001600160a01b038381166001600160a01b0319831681178455604051919092169283917f8be0079c531659141344cd1fd0a4f28419497f9722a3daafe3b4186f6b6457e09190a35050565b6102ce828260405160240161073c929190610aa6565b60408051601f198184030181529190526020810180516001600160e01b0316632d839cb360e21b17905261076f81610772565b50565b5f6a636f6e736f6c652e6c6f6790505f5f835160208501845afa505050565b634e487b7160e01b5f52604160045260245ffd5b5f602082840312156107b5575f5ffd5b813567ffffffffffffffff8111156107cb575f5ffd5b8201601f810184136107db575f5ffd5b803567ffffffffffffffff8111156107f5576107f5610791565b604051601f8201601f19908116603f0116810167ffffffffffffffff8111828210171561082457610824610791565b60405281815282820160200186101561083b575f5ffd5b816020840160208301375f91810160200191909152949350505050565b5f60208284031215610868575f5ffd5b81356001600160a01b038116811461087e575f5ffd5b9392505050565b5f81518084528060208401602086015e5f602082860101526020601f19601f83011685010191505092915050565b602081525f61087e6020830184610885565b600181811c908216806108d957607f821691505b6020821081036108f757634e487b7160e01b5f52602260045260245ffd5b50919050565b601f82111561094457805f5260205f20601f840160051c810160208510156109225750805b601f840160051c820191505b81811015610941575f815560010161092e565b50505b505050565b815167ffffffffffffffff81111561096357610963610791565b6109778161097184546108c5565b846108fd565b6020601f8211600181146109a9575f83156109925750848201515b5f19600385901b1c1916600184901b178455610941565b5f84815260208120601f198516915b828110156109d857878501518255602094850194600190920191016109b8565b50848210156109f557868401515f19600387901b60f8161c191681555b50505050600190811b01905550565b634e487b7160e01b5f52601160045260245ffd5b80820180821115610a2b57610a2b610a04565b92915050565b634e487b7160e01b5f52601260045260245ffd5b5f82610a5357610a53610a31565b500690565b8082028115828204841417610a2b57610a2b610a04565b5f82610a7d57610a7d610a31565b500490565b606081525f610a946060830186610885565b93151560208301525060400152919050565b604081525f610ab86040830185610885565b9050826020830152939250505056fe57696e6e6572207072697a652073656e74212046656520636f6c6c65637465643aa26469706673582212205e7990f2faccef3f1d9444fe9133ada86287d7d68f255a551d47fb5b4bd50ef664736f6c634300081e0033",
  "devdoc": {
    "author": "BuidlGuidl",
    "kind": "dev",
    "methods": {},
    "version": 1
  },
  "userdoc": {
    "kind": "user",
    "methods": {},
    "notice": "A smart contract that allows changing a state variable of the contract and tracking the changes It also allows the owner to withdraw the Ether in the contract",
    "version": 1
  },
  "storageLayout": {
    "storage": [
      {
        "astId": 7568,
        "contract": "contracts/YourContract.sol:YourContract",
        "label": "owner",
        "offset": 0,
        "slot": "0",
        "type": "t_address"
      },
      {
        "astId": 7571,
        "contract": "contracts/YourContract.sol:YourContract",
        "label": "greeting",
        "offset": 0,
        "slot": "1",
        "type": "t_string_storage"
      },
      {
        "astId": 7574,
        "contract": "contracts/YourContract.sol:YourContract",
        "label": "premium",
        "offset": 0,
        "slot": "2",
        "type": "t_bool"
      },
      {
        "astId": 7577,
        "contract": "contracts/YourContract.sol:YourContract",
        "label": "totalCounter",
        "offset": 0,
        "slot": "3",
        "type": "t_uint256"
      },
      {
        "astId": 7581,
        "contract": "contracts/YourContract.sol:YourContract",
        "label": "userGreetingCounter",
        "offset": 0,
        "slot": "4",
        "type": "t_mapping(t_address,t_uint256)"
      }
    ],
    "types": {
      "t_address": {
        "encoding": "inplace",
        "label": "address",
        "numberOfBytes": "20"
      },
      "t_bool": {
        "encoding": "inplace",
        "label": "bool",
        "numberOfBytes": "1"
      },
      "t_mapping(t_address,t_uint256)": {
        "encoding": "mapping",
        "key": "t_address",
        "label": "mapping(address => uint256)",
        "numberOfBytes": "32",
        "value": "t_uint256"
      },
      "t_string_storage": {
        "encoding": "bytes",
        "label": "string",
        "numberOfBytes": "32"
      },
      "t_uint256": {
        "encoding": "inplace",
        "label": "uint256",
        "numberOfBytes": "32"
      }
    }
  }
}